:020000040000FA
:060000000A128A11FC2F18
:100F3A000A128A11C8270A128A1183120313881403
:100F4A0008110230F2000430F100BA30F000F00B60
:100F5A00AC2FF10BAC2FF20BAC2F00008312031352
:100F6A00881008150230F2000430F100BA30F0009F
:100F7A00F00BBD2FF10BBD2FF20BBD2F0000A22FDE
:100F8A000A128A1100288316031788018901831619
:100F9A0003138501860188018701890183120313DE
:100FAA00850186018701880189010B178B178C112E
:100FBA00831603138C15831203130C12831603135F
:100FCA009A01193099002430980090308312031343
:100FDA009800831603178711831603130F088F3996
:100FEA0060388F008F110F118F100F1408008301C2
:060FFA000A128A119D2F6E
:04400E00D420FF3F7C
:00000001FF
