:020000040000FA
:060000000A128A11F32F21
:1008AA000A128A117A240A128A11831603139114DE
:1008BA0008000A128A117A240A128A11831603136B
:1008CA00111408000A128A117A240A128A1183164C
:1008DA000313111508000A128A117A240A128A11BE
:1008EA007008831203139300080083160313141964
:1008FA007F2C802C7A2C11081F39031D852C862CFD
:10090A007A2C0800831603178801890183160313BA
:10091A0085018601880187018901831203138501F4
:10092A0086018701880189017030831603138F04B9
:10093A008F110F118F100F1408000A128A117A24CE
:10094A000A128A118316031391150A128A117A243C
:10095A000A128A11831203131308F200F3017208B0
:10096A00F4007308F5000A128A117A240A128A110D
:10097A0070037104031DC22CC32CC72C83160313E6
:10098A009112CA2C83160313911611167508F100D9
:10099A007408F000080083120313A0000A30F00064
:1009AA000030F1002008F900FA017908F2007A080B
:1009BA00F3000A128A1130260A128A117008FB0003
:1009CA0004300310FB0DFF3E031DE62C0A30F00035
:1009DA000030F100831203132008FC00FD017C089B
:1009EA00F2007D08F3000A128A1171250A128A118F
:1009FA0070087B07080028308312031394008316BB
:100A0A0003139101831203132008A4002108A500EF
:100A1A002208A6002308A70002300310A40DA50D82
:100A2A00A60DA70DFF3E031D122D2708F300260869
:100A3A00F2002508F1002408F0000030F7007A30AF
:100A4A00F6001230F5000030F4000A128A11CA25A5
:100A5A000A128A117008FF3E831603139300940149
:100A6A008715071608000A128A1187240A128A11A2
:100A7A00003083120313A3000130A2008630A100C4
:100A8A00A030A0000A128A1100250A128A118312C4
:100A9A0003133308AA002A08A1003208AB002B0866
:100AAA00A2003108AC002C08A3003008AD002D08C4
:100ABA00A4002F08AE002E08A50034080A128A11D5
:100ACA002C270A128A110A128A1197260A128A11E7
:100ADA00682D0A128A110028F601F31F752D762D4A
:100AEA007D2DF209F309F20A0319F30AF601F60A4F
:100AFA00F11F802D812D862DF009F109F00A0319C5
:100B0A00F10A7008710403198B2D8C2DBB2DF50188
:100B1A00F50A9A2D01300310F00DF10DFF3E031D69
:100B2A00902D0130F4007408F507F11F9D2D9E2DBC
:100B3A008F2D71087302031DA42D70087202031C05
:100B4A00A72DA82DAE2D7008F2027108031CF3031D
:100B5A00F30201300310F10CF00CFF3E031DAF2D20
:100B6A000130F502031DBA2DBB2D9E2D76080319FF
:100B7A00BF2DC02DC52DF209F309F20A0319F30A94
:100B8A007308F1007208F00008000030FC00003021
:100B9A00FB000030FA000030F90073087204710497
:100BAA0070040319D92DDA2D272EFD01FD0AEA2D2D
:100BBA000130F8000310F00DF10DF20DF30DF80BF2
:100BCA00DF2D0130F8007808FD07F31FED2DEE2D1B
:100BDA00DD2D0130F8000310F90DFA0DFB0DFC0DA7
:100BEA00F80BF02D73087702031D052E72087602A2
:100BFA00031D052E71087502031D052E7008740267
:100C0A00031C082E092E182E7008F4027108031C02
:100C1A00710FF5027208031C720FF6027308031CA7
:100C2A00730FF702791401300310F30CF20CF10C74
:100C3A00F00CFF3E031D192E0130FD02031D262E66
:100C4A00272EEE2D7C08F3007B08F2007A08F100CB
:100C5A007908F0000800F601F11F342E352E3C2EDB
:100C6A00F009F109F00A0319F10AF601F60AF31F6D
:100C7A003F2E402E492EF209F309F20A0319F30A0C
:100C8A000130F4007408F606F701F80170087104DF
:100C9A000319502E512E882EF501F50A5F2E0130C8
:100CAA000310F00DF10DFF3E031D552E0130F40027
:100CBA007408F507F11F622E632E542E01300310BB
:100CCA00F70DF80DFF3E031D642E71087302031D14
:100CDA00702E70087202031C732E742E7B2E7008FD
:100CEA00F2027108031CF303F302771401300310B4
:100CFA00F10CF00CFF3E031D7C2E0130F502031DA2
:100D0A00872E882E632E760803198C2E8D2E922E0E
:100D1A00F709F809F70A0319F80A7808F1007708B9
:100D2A00F00008000A128A115E240A128A11D030D1
:100D3A00F0000030F1000A128A1170240A128A1196
:100D4A000030F000F1000A128A1170240A128A1186
:100D5A000A128A1155240A128A11D130F000003081
:100D6A00F1000A128A1170240A128A110130F00065
:100D7A000030F1000A128A11A2240A128A1170089C
:100D8A00F600760883120313B4000130F000003035
:100D9A00F1000A128A11A2240A128A117008F600B6
:100DAA00760883120313B3000130F0000030F1001B
:100DBA000A128A11A2240A128A117008F600760809
:100DCA0083120313B2000130F0000030F1000A125E
:100DDA008A11A2240A128A110130F0000030F100AF
:100DEA000A128A11A2240A128A117008F6007608D9
:100DFA0083120313B1000130F0000030F1000A122F
:100E0A008A11A2240A128A117008F600760883123F
:100E1A000313B0000030F000F1000A128A11A22474
:100E2A000A128A117008F600760883120313AF00BB
:100E3A000A128A1167240A128A118230F700DD30F9
:100E4A00F600F60B262FF70B262F2B2F08008312FE
:100E5A000313A90029080A128A11D0240A128A1136
:100E6A0083120313A6002608A90021080A128A1170
:100E7A00D0240A128A1183120313A6002608A1009D
:100E8A0022080A128A11D0240A128A118312031321
:100E9A00A6002608A20023080A128A11D0240A12E0
:100EAA008A1183120313A6002608A30024080A1233
:100EBA008A11D0240A128A1183120313A600260863
:100ECA00A40025080A128A11D0240A128A11831250
:100EDA000313A6002608A5000A128A115E240A1224
:100EEA008A11D030F0000030F1000A128A11702401
:100EFA000A128A110030F000F1000A128A117024D5
:100F0A000A128A110030F000F1000A128A117024C4
:100F1A000A128A11831203132108A600A7012608C0
:100F2A00F0002708F1000A128A1170240A128A11A5
:100F3A00831203132208A600A7012608F000270837
:100F4A00F1000A128A1170240A128A110130F00083
:100F5A000030F1000A128A1170240A128A118312CF
:100F6A0003132308A600A7012608F0002708F100AA
:100F7A000A128A1170240A128A118312031324088E
:100F8A00A600A7012608F0002708F1000A128A1114
:100F9A0070240A128A11831203132508A600A701D6
:100FAA002608F0002708F1000A128A1170240A1292
:100FBA008A110A128A1167240A128A1103308312CB
:100FCA000313A8000830A7007630A600A60BEB2F63
:100FDA00A70BEB2FA80BEB2F0000080083120313BB
:100FEA00AF01B001B101B201B301B401B50183018E
:060FFA000A128A11382DD5
:04400E00D420FF3F7C
:00000001FF
