:020000040000FA
:060000000A128A110C280F
:10000800FE00030EF1000A08F2000A128A11D62B2C
:100018000A128A110F28FA0183120313BE01830101
:100028000A128A11F12A83120313B20032080A1243
:100038008A1176230A128A1183120313AF002F083C
:10004800B2002A080A128A1176230A128A11831228
:100058000313AF002F08AA002B080A128A1176236F
:100068000A128A1183120313AF002F08AB002C0861
:100078000A128A1176230A128A1183120313AF0017
:100088002F08AC002D080A128A1176230A128A1149
:1000980083120313AF002F08AD002E080A128A112D
:1000A80076230A128A1183120313AF002F08AE00B9
:1000B8000A128A1108240A128A11D030F30000307B
:1000C800F4000A128A11F5230A128A110030F3008B
:1000D800F4000A128A11F5230A128A110030F3007B
:1000E800F4000A128A11F5230A128A1183120313E3
:1000F8002A08AF00B0012F08F3003008F4000A12F4
:100108008A11F5230A128A11831203132B08AF00F0
:10011800B0012F08F3003008F4000A128A11F52301
:100128000A128A110130F3000030F4000A128A1111
:10013800F5230A128A11831203132C08AF00B001A9
:100148002F08F3003008F4000A128A11F5230A1266
:100158008A11831203132D08AF00B0012F08F30092
:100168003008F4000A128A11F5230A128A11831240
:1001780003132E08AF00B0012F08F3003008F40075
:100188000A128A11F5230A128A110A128A11FF2308
:100198000A128A11033083120313B1000830B00029
:1001A8007630AF00AF0BD628B00BD628B10BD628C7
:1001B800000008000A128A1108240A128A11D03095
:1001C800F3000030F4000A128A11F5230A128A118A
:1001D8000030F300F4000A128A11F5230A128A117A
:1001E8000A128A1111240A128A11D130F300003040
:1001F800F4000A128A11F5230A128A110130F30059
:100208000030F4000A128A11A8230A128A1173080E
:1002180083120313A0002008BD000130F300003052
:10022800F4000A128A11A8230A128A117308831289
:100238000313A0002008BC000130F3000030F400D4
:100248000A128A11A8230A128A1173088312031347
:10025800A0002008BB000130F3000030F4000A12AF
:100268008A11A8230A128A110130F3000030F40021
:100278000A128A11A8230A128A1173088312031317
:10028800A0002008BA000130F3000030F4000A1280
:100298008A11A8230A128A11730883120313A00073
:1002A8002008B9000030F300F4000A128A11A823CC
:1002B8000A128A11730883120313A0002008B800D9
:1002C8000A128A11FF230A128A1182308312031339
:1002D800A100DD30A000A00B6F29A10B6F29080039
:1002E80083120313A101F41F7A297B298229F309B8
:1002F800F409F30A0319F40AA101A10AF61F8529D2
:1003080086298F29F509F609F50A0319F60A013035
:10031800F7007708A106A201A30173087404031962
:1003280096299729CE29A001A00AA52901300310F2
:10033800F30DF40DFF3E031D9B290130F7007708EC
:10034800A007F41FA829A9299A2901300310A20D92
:10035800A30DFF3E031DAA2974087602031DB629C2
:1003680073087502031CB929BA29C1297308F50253
:100378007408031CF603F602221401300310F40C6F
:10038800F30CFF3E031DC2290130A002031DCD2935
:10039800CE29A92921080319D229D329D829A209A4
:1003A800A309A20A0319A30A2308F4002208F300E8
:1003B80008000030F7000030F6000030F50000308B
:1003C800F4008312031323082204210420040319D0
:1003D800EE29EF293C2AF801F80AFF290130F30039
:1003E8000310A00DA10DA20DA30DF30BF4290130EC
:1003F800F3007308F807A31F022A032AF229013021
:10040800F3000310F40DF50DF60DF70DF30B052AA7
:1004180023082702031D1A2A22082602031D1A2A66
:1004280021082502031D1A2A20082402031C1D2A5C
:100438001E2A2D2A2008A4022108031C210FA50228
:100448002208031C220FA6022308031C230FA7025D
:10045800741401300310A30CA20CA10CA00CFF3ED5
:10046800031D2E2A0130F802031D3B2A3C2A032AC9
:100478007708A3007608A2007508A1007408A000F8
:100488000800F901F61F492A4A2A512AF509F609EE
:10049800F50A0319F60AF901F90AF41F542A552A2C
:1004A8005A2AF309F409F30A0319F40A73087404BD
:1004B80003195F2A602A8F2AF801F80A6E2A013088
:1004C8000310F30DF40DFF3E031D642A0130F700FD
:1004D8007708F807F41F712A722A632A74087602CB
:1004E800031D782A73087502031C7B2A7C2A822A3A
:1004F8007308F5027408031CF603F60201300310B2
:10050800F40CF30CFF3E031D832A0130F802031D8F
:100518008E2A8F2A722A79080319932A942A992AEB
:10052800F509F609F50A0319F60A7608F4007508BC
:10053800F3000800831603138801D8308700890167
:1005480083120313850186018701880189018316B7
:1005580003130F088F3960388F008F110F118F1018
:100568000F148B170B178C16831203138C12831618
:1005780003178711831603139A0119309900243041
:10058800980090308312031398000030AB000130BC
:10059800AA008630A900A030A8000A128A113C23BC
:1005A8000A128A112430F900790883120313BD0056
:1005B8001E30F9007908BC000630F9007908BB0044
:1005C8001730F9007908BA000730F9007908B9003E
:1005D8006330F9007908B80008000A128A119E22CF
:1005E8000A128A11003083120313AB000130AA00EB
:1005F8008630A900A030A8000A128A113C230A12EA
:100608008A11831203133C08B3003308AA003B087D
:10061800B4003408AB003A08B5003508AC00390816
:10062800B6003608AD003808B7003708AE003D08F8
:100638000A128A1117200A128A110A128A11DE2058
:100648000A128A11831203133C089900343083126A
:100658000313B400F130B300B30B302BB40B302BC1
:10066800831203133E088800212B0A128A110C28D2
:100678002830831203139400831603139101831205
:1006880003132808AC002908AD002A08AE002B087F
:10069800AF0002300310AC0DAD0DAE0DAF0DFF3E37
:1006A800031D4E2B2F08A3002E08A2002D08A10021
:1006B8002C08A0000030A7007A30A6001230A50050
:1006C8000030A4000A128A11DD210A128A1183124D
:1006D80003132008FF3E8316031393009401871524
:1006E8000716080083120313A9000A30F30000302C
:1006F800F4002908A400A5012408F5002508F6003F
:100708000A128A1174210A128A11730883120313B8
:10071800A60004300310A60DFF3E031D8E2B0A30E1
:10072800F3000030F4002908A700A8012708F50005
:100738002808F6000A128A1145220A128A1173083B
:1007480083120313260708000A128A11E8230A12E3
:100758008A118316031391150A128A11E8230A12C3
:100768008A11831203131308F500F6017508F700C0
:100778007608F8000A128A11E8230A128A1173030C
:100788007404031DC82BC92BCD2B83160313911298
:10079800D02B83160313911611167808F4007708E6
:1007A800F3000800831203138C1EDB2BDC2BE12BD8
:1007B8008C121A08F0007008BE0072088A00710EC8
:1007C8008300FE0E7E0E0900831603131419ED2B09
:1007D800EE2BE82B11081F39031DF32BF42BE82B04
:1007E80008000A128A11E8230A128A117308831270
:1007F8000313930008000A128A11E8230A128A11C7
:1008080083160313111508000A128A11E8230A1225
:100818008A1183160313111408000A128A11E82397
:0C0828000A128A118316031391140800B1
:04400E00D420FF3F7C
:00000001FF
