:020000040000FA
:060000000A128A110C280F
:10000800FE00030EF0000A08F1000A128A114428C3
:100018000A128A110F28F30183010A128A116C2827
:10002800831603138F110F118F108B170B178C1654
:10003800831203138C128316031788010130890079
:100048008316031385018312031385010730831672
:100058000313860083120313860183160313870193
:100068008312031387018316031388018312031372
:100078008801831603138901831203138901080079
:10008800F2018312031306184A284B284D28F2015F
:10009800F20A0B087206FE3972068B000B0801394A
:1000A800003A031958285928652806185C285D283D
:1000B8006528061C6028612865280808FF3E880016
:1000C8000B1071088A00700E8300FE0E7E0E090068
:1000D8000A128A1114200A128A1171280A128A1126
:0200E8000C28E2
:04400E00D1E0FFFFFF
:00000001FF
