:020000040000FA
:060000000A128A110C280F
:10000800FE00030EF2000A08F3000A128A15632A9A
:100018000A128A110F28F601F701F801F901831372
:100028006230840070300A128A15DB200A128A11A5
:10003800A0308400DD300A128A15DB200A128A11EA
:1000480083010A128A150429831603138C160B17C9
:100058008B17831203138C120C12E201E3011F08A1
:100068003F3940389F001F14831603139F131F1234
:100078009F129A0119309900243098009030831209
:10008800031398000B30A1008030A2000A128A15D1
:10009800BE210A128A11C73083160313DD005428C3
:1000A800DD0B53285728C330831203139F051F14F1
:1000B8009F149F18602861285D281E088316031363
:1000C800DD005D08F900433083120313CB007F3055
:1000D800CA000030C9000030C8004030B100A0306C
:1000E800B0000030AF000030AE007908831603136B
:1000F800DD00DE01DF01E001600883120313A300C5
:10010800831603135F0883120313A20083160313D5
:100118005E0883120313A100831603135D0883127C
:100128000313A00001300A128A11F9260A128A1153
:10013800831203132308B5002208B4002108B30072
:100148002008B2000A128A1198230A128A1183120F
:1001580003133108CF003008CE002F08CD002E0839
:10016800CC000A128A1523260A128A118312031355
:100178004B0883160313A700831203134A08831638
:100188000313A60083120313490883160313A5005B
:1001980083120313480883160313A4002708831245
:1001A8000313B50083160313260883120313B40040
:1001B80083160313250883120313B300831603134E
:1001C800240883120313B2004230B100C830B000D3
:1001D8000030AF000030AE000A128A1198230A12CC
:1001E8008A11831203133108CB003008CA002F0884
:1001F800C9002E08C8000A128A1542240A128A1158
:10020800831203134908F7004808F6000A30A800CB
:100218000030A9007708AB007608AA000A128A15F0
:100228000C230A128A11831203132908EF002808E5
:10023800EE006F08B6006E08B5000A30B70000304F
:10024800B800D8300A128A1598210A128A110A3081
:1002580083120313A8000030A9000A30A000003060
:10026800A1007708A3007608A2000A128A1567235E
:100278000A128A11831203132108AB002008AA006E
:100288000A128A150C230A128A11831203132908E9
:10029800ED002808EC006D08B6006C08B5000A30BF
:1002A800B7000030B800D3300A128A1598210A1214
:1002B8008A110A3083120313A8000030A9006430A1
:1002C800A0000030A1007708A3007608A2000A1257
:1002D8008A1567230A128A11831203132108AB00B7
:1002E8002008AA000A128A150C230A128A118312FE
:1002F80003132908EB002808EA006B08B6006A080F
:10030800B5000A30B7000030B800CE300A128A159E
:1003180098210A128A11D83083160313DD005D086C
:10032800F400D3300A128A1538220A128A112430AE
:1003380083160313DD005D08F400C9300A128A151C
:1003480075210A128A11D33083160313DD005D0864
:10035800F400C9300A128A1538220A128A11C930E3
:1003680083160313DD005D08F400CE300A128A15E7
:1003780038220A128A11C73083160313DD00DD0BF9
:10038800C329831203131F08C33904389F001F149D
:100398009F149F18D029D129CD291E08831603132D
:1003A800DD005D08F800433083120313CB007F3073
:1003B800CA000030C9000030C8004030B100A03089
:1003C800B0000030AF000030AE0078088316031389
:1003D800DD00DE01DF01E001600883120313A300E2
:1003E800831603135F0883120313A20083160313F3
:1003F8005E0883120313A100831603135D0883129A
:100408000313A00001300A128A11F9260A128A1170
:10041800831203132308B5002208B4002108B3008F
:100428002008B2000A128A1198230A128A1183122C
:1004380003133108CF003008CE002F08CD002E0856
:10044800CC000A128A1523260A128A118312031372
:100458004B0883160313A300831203134A08831659
:100468000313A20083120313490883160313A10080
:1004780083120313480883160313A000230883126A
:100488000313B50083160313220883120313B40061
:1004980083160313210883120313B300831603136F
:1004A800200883120313B2004230B100C830B000F4
:1004B8000030AF000030AE000A128A1198230A12E9
:1004C8008A11831203133108CB003008CA002F08A1
:1004D800C9002E08C8000A128A1542240A128A1175
:1004E800831203134908E9004808E8000A30A80005
:1004F8000030A9006908AB006808AA000A128A152A
:100508000C230A128A11831203132908E70028080A
:10051800E6006708B6006608B5000A30B700003084
:10052800B800C4300A128A1598210A128A110A30B2
:1005380083120313A8000030A9000A30A00000307D
:10054800A1006908A3006808A2000A128A15672397
:100558000A128A11831203132108AB002008AA008B
:100568000A128A150C230A128A1183120313290806
:1005780083160313AF00831203132808831603138B
:10058800AE002F0883120313B600831603132E0838
:1005980083120313B5000A30B7000030B800BF302B
:1005A8000A128A1598210A128A110A308312031333
:1005B800A8000030A9006430A0000030A10069083C
:1005C800A3006808A2000A128A1567230A128A1172
:1005D800831203132108AB002008AA000A128A1507
:1005E8000C230A128A118312031329088316031392
:1005F800AD0083120313280883160313AC002D08DB
:1006080083120313B600831603132C0883120313F3
:10061800B5000A30B7000030B800BA300A128A159F
:1006280098210A128A11C43083160313DD005D086D
:10063800F400BF300A128A1538220A128A112430AF
:1006480083160313DD005D08F400B5300A128A151D
:1006580075210A128A11BF3083160313DD005D0865
:10066800F400B5300A128A1538220A128A11B530F8
:1006780083160313DD005D08F400BA300A128A15E8
:1006880038220A128A111C3083160313DD005D0814
:1006980083120313AC006308AE006208AD00B030EB
:1006A8000A128A15BE240A128A11C0300A128A1543
:1006B80017210A128A11CE3083120313A1000030C9
:1006C800A2000A128A15BE210A128A112130831249
:1006D8000313A1008030A2000A128A15BE210A1253
:1006E8008A11BA3083120313A1000030A2000A1243
:1006F8008A15BE210A128A11213083120313A10020
:100708008030A2000A128A15BE210A128A11B0305E
:1007180083120313A1000030A2000A128A15BE2119
:100728000A128A114F2808008312031331088039EE
:10073800B6003608BB003108B6003607B7003708E0
:10074800C100B01FA82BA92BAA2B411441080319DB
:10075800AE2BAF2BBE2B410A031DB32BB42BBC2BE6
:100768000030B1000030B0000030AF000030AE0003
:10077800B017C62B0030B1000030B0000030AF0019
:100788000030AE0035088039B6003608BB0635089B
:10079800B6003607B7003708BC00B41FD42BD52BDA
:1007A800D62B3C143C080319DA2BDB2BEA2B3C0A2A
:1007B800031DDF2BE02BE82B0030B5000030B40020
:1007C8000030B3000030B200B417F22B0030B5008F
:1007D8000030B4000030B3000030B2003C08031908
:1007E800F62BF72BFC2B4108031DFB2BFC2B052CB0
:1007F8000030B1000030B0000030AF000030AE0073
:10080800F82E2E08B6003608F40034080A128A15A5
:100818000F220A128A11750883120313C70074087D
:10082800C6004608B600B701B801B9013908C000CA
:100838003808BF003708BE003608BD004708B600B4
:10084800B701B801B9013908C5003808C40037082C
:10085800C3003608C2002F08B6003608F400330873
:100868000A128A150F220A128A11750883120313B5
:10087800C7007408C6004608B600B701B801B90138
:100888003608BD07370803110318013E03194D2C1C
:10089800BE07380803110318013E0319542CBF077B
:1008A800390803110318013E03195B2CC0074708D8
:1008B800B600B701B801B9013608C20737080311F5
:1008C8000318013E0319692CC307380803110318DC
:1008D800013E0319702CC407390803110318013E9F
:1008E8000319772CC5073008B6003608F40032081B
:1008F8000A128A150F220A128A1175088312031325
:10090800C7007408C6004608B600B701B801B901A7
:100918003608BD07370803110318013E0319952C43
:10092800BE07380803110318013E03199C2CBF07A2
:10093800390803110318013E0319A32CC0074708FF
:10094800B600B701B801B9013608C2073708031164
:100958000318013E0319B12CC30738080311031803
:10096800013E0319B82CC407390803110318013EC6
:100978000319BF2CC5070830B6000310BD0DBE0D06
:10098800BF0DC00DB60BC12C2F08B6003608F400F9
:1009980032080A128A150F220A128A117508831260
:1009A8000313C7007408C6004608B6004708B70016
:1009B800B801B9013608BD07370803110318013E0D
:1009C8000319E72CBE07380803110318013E031961
:1009D800EE2CBF07390803110318013E0319F52C43
:1009E800C0072E08B6003608F40033080A128A1524
:1009F8000F220A128A11750883120313C70074089C
:100A0800C6004608B6004708B700B801B90136085D
:100A1800BD07370803110318013E0319142DBE073B
:100A2800380803110318013E03191B2DBF073908A5
:100A380003110318013E0319222DC0070830B60020
:100A48000310BD0DBE0DBF0DC00DB60B242D2E0815
:100A5800B6003608F40032080A128A150F220A1264
:100A68008A11750883120313C7007408C600460864
:100A7800B6004708B700B801B9013608BD073708FE
:100A880003110318013E03194A2DBE073808031144
:100A98000318013E0319512DBF0739080311031824
:100AA800013E0319582DC0072F08B6003608F40078
:100AB80034080A128A150F220A128A11750883123D
:100AC8000313C7007408C6004608B6004708B700F5
:100AD800B801B9013608C207370803110318013EE7
:100AE8000319772DC307380803110318013E0319AA
:100AF8007E2DC407390803110318013E0319852DFB
:100B0800C5073008B6003608F40033080A128A15FB
:100B18000F220A128A11750883120313C70074087A
:100B2800C6004608B6004708B700B801B90136083C
:100B3800C207370803110318013E0319A42DC30780
:100B4800380803110318013E0319AB2DC4073908EF
:100B580003110318013E0319B22DC5073008B6006A
:100B68003608F40034080A128A150F220A128A116C
:100B7800750883120313C7007408C6004608B60038
:100B88004708B700B801B90108300310B60DB70D12
:100B9800B80DB90DFF3E031DC92D3608C207370829
:100BA80003110318013E0319DA2DC307380803118E
:100BB8000318013E0319E12DC4073908031103186E
:100BC800013E0319E82DC5073D08B6003E08B700E9
:100BD8003F08B8004008B90018300310B90CB80C29
:100BE800B70CB60CFF3E031DF12D3608C2073708B7
:100BF80003110318013E0319022EC3073808031115
:100C08000318013E0319092EC407390803110318F4
:100C1800013E0319102EC5070830B6000310BD0D9C
:100C2800BE0DBF0DC00DB60B122E41083C07B60015
:100C3800B701B70D3608823EC60037080318013ED3
:100C4800FF3EC700442E0130B6000310C20DC30D8D
:100C5800C40DC50DB60B292EC01F332E342E352ECC
:100C680042140130B6000310BD0DBE0DBF0DC00DFE
:100C7800B60B372EFF30C6070318C70AFF30C70761
:100C8800C41F472E482E272EBC01C01F4C2E4D2EA8
:100C9800692EFF303D05B600FF303E05B700FF3036
:100CA8003F05B8007F304005B900390838043704DB
:100CB80036040319602E612E642EBC01BC0A692E0D
:100CC800421C672E682E692E612E3C0803196D2E72
:100CD8006E2E9F2E0130C207003003180130C30763
:100CE800003003180130C407003003180130C5076D
:100CF800451C7F2E802E9F2E4208B6004308B70061
:100D08004408B8004508B9000130BA00390DB90CDB
:100D1800B80CB70CB60CBA0B8A2E3908C5003808BF
:100D2800C4003708C3003608C2000130C6070318DC
:100D3800C70A0030C7074708803AFF0080307F02A3
:100D4800031DA82EFF304602031CAB2EAC2EB72E77
:100D58007F3083120313C5008030C4000030C30005
:100D68000030C200EC2E831203134708803AFF00BC
:100D780080307F02031DC22E013046020318C52EA3
:100D8800C62ED22E003083120313C5000030C400D3
:100D98000030C3000030C200BB01EC2E83120313E5
:100DA8004608B6003608C100FF30C205FF30C3054B
:100DB8007F30C4050030C505411CE32EE42EE52E26
:100DC800C4174108B6000310360CB7003708C50031
:100DD8003B08B6003608C5044508B1004408B00011
:100DE8004308AF004208AE00080083120313A800AE
:100DF80028080319002F012F152FA31F042F052FD3
:100E0800152F2009AA002109AB002209AC002309EB
:100E1800AD00AA0A0319AB0A0319AC0A0319AD0AF3
:100E28001D2F2308AD002208AC002108AB002008C4
:100E3800AA002308220421042004031D242F252F9F
:100E48002E2F0030A3000030A2000030A100003097
:100E5800A000B42F9630A4002408A900402F013028
:100E6800A4002408A90701300310AD0CAC0CAB0C8E
:100E7800AA0CFF3E031D382FFE302D05031D452FFC
:100E8800462F332F622F0130A4002408A907013010
:100E9800AA07003003180130AB07003003180130EF
:100EA800AC07003003180130AD0701300310AD0C5A
:100EB800AC0CAB0CAA0CFF3E031D5A2FFF302D05BE
:100EC800031D672F682F472F742F0130A9020130A7
:100ED800A4000310AA0DAB0DAC0DAD0DA40B6D2F26
:100EE800AC1B772F782F7E2F0230290203187D2F15
:100EF8007E2F692F2918812F822F8A2FFF30AA056C
:100F0800FF30AB057F30AC05FF30AD050310A90CF1
:100F18002908A400A501A601A70118300310A40DF3
:100F2800A50DA60DA70DFF3E031D922F2408AA04A8
:100F38002508AB042608AC042708AD0428080319C3
:100F4800A62FA72FAC2FA31FAA2FAB2FAC2FAD17FF
:100F58002D08A3002C08A2002B08A1002A08A00035
:100F6800080083120313A501A60120082104031910
:100F7800BE2FBF2FF62FA401A40ACD2F01300310D6
:100F8800A00DA10DFF3E031DC32F0130F40074080E
:100F9800A407A11FD02FD12FC22F01300310A50DF8
:100FA800A60DFF3E031DD22F21082302031DDE2FAD
:100FB80020082202031CE12FE22FE92F2008A202B9
:100FC8002108031CA303A302251401300310A10C5C
:100FD800A00CFF3E031DEA2F0130A402031DF52FCC
:0E0FE800F62FD12F2608A1002508A000080032
:10100000FF1B0A2883137F1883170008840A03191B
:10101000FF0A080008308A000408840A82070034A6
:10102000013400340A34003464340034E8340334C6
:1010300010342734533431342034203420342034D5
:1010400020345334323420342034203420342034BB
:1010500053343334003425342E343134693400347D
:0A1060005634203400342E340034DE
:1011B60064008001840A0406031900340406DC284E
:1011C6008312031387162730F500F530F400F40B6D
:1011D600EA28F50BEA288312031387120800F500A4
:1011E600F4013A3075020318F928FA28022930303A
:1011F6007502031CFF2800290229F401F40A740C65
:1012060008000A128A1599220A128A150A128A15E4
:1012160056210A128A150A128A1128200A128A15DC
:1012260009290A128A110C2883120313A0000A1234
:101236008A15E6210A128A158312031320088600EE
:10124600871107120A128A15E3200A128A15080066
:1012560083120313A0000A128A15E6210A128A15C0
:101266008312031320088600871507120A128A15AF
:10127600E3200A128A15080083120313A100A001B5
:10128600211C462947294B297408F5007508A00733
:101296000310F40D0310A10C2108031D5329542932
:1012A60043292008080038300A128A1517210A1225
:1012B6008A150C300A128A1517210A128A1501306E
:1012C6000A128A1517210A128A1506300A128A1579
:1012D60017210A128A1580300A128A1517210A1256
:1012E6008A15080083120313A1002108F50075086A
:1012F600A00085290130F5007508A0070130F5002A
:101306007508F407740884000A128A150A200A125E
:101316008A15F500200884007508831380000008EC
:10132600031D962997297D29080083120313BB0004
:10133600B61F9E299F29AF292D30B9003B0884008E
:101346003908831380000130B9003908BB07B50995
:10135600B609B50A0319B60A3608AD003508AC0059
:101366003808AF003708AE003B080A128A15D023AA
:101376000A128A150800D5292208FF0021088400D0
:101386000A128A1500200A128A150A128A152B21BA
:101396000A128A15013083120313A1070318A20A41
:1013A6000030A207831203132208FF0021088400DD
:1013B6000A128A1500200A128A15003A031DE4292A
:1013C600E529BF290800FF30831203138600803009
:1013D600F400740886058711071687122730F50072
:1013E600F530F400F40BF529F50BF52983120313F8
:1013F600871680300606031D012A022A0E2A871246
:101406002730F500F530F400F40B072AF50B072A10
:10141600831203138716080083120313A600A20182
:10142600A3017408A000A1012008A4002108A500BA
:10143600261C1E2A1F2A252A2408A2070318A30AE7
:101446002508A30701300310A40DA50DFF3E031DBB
:10145600262A0310A60C2608031D322A332A1B2A25
:101466002308F5002208F400080083120313A000E5
:101476002008F5007508A100442A0130F50075081A
:10148600A1072108840083130008031D4B2A4C2A58
:10149600402A552A0130F5007508A1070130F500EC
:1014A6007508F407740884000008F5002108840014
:1014B600750880000008031D612A622A4D2A08006B
:1014C600831203138C1E682A692A922A05081A08B1
:1014D600F000F1017008E4007108E5002B306406A5
:1014E6006504031D772A782A812A6208013EE200F4
:1014F60063080318013E003EE300922A2D3064067D
:101506006504031D872A882A912A6208FF3EE200A5
:1015160063080318013EFF3EE300922A8C1273080B
:101526008A00720E8300FE0E7E0E090003308316BB
:10153600031788008901033083160313850086018B
:101546008801803087008901831203138501860193
:10155600870188018901831603138C160B178B17D5
:10156600831203138C120C12831603139A0119307B
:101576009900243098009030831203139800831644
:1015860003178711831603130F088F3960388F00EE
:101596008F110F118F100F140800831203132708E1
:1015A60028040319D72AD82A072BAB01AB0AE62A47
:1015B60001300310A70DA80DFF3E031DDC2A0130E4
:1015C600F5007508AB07A81FE92AEA2ADB2A2808CE
:1015D6002A02031DF02A27082902031CF32AF42AEB
:1015E600FA2A2708A9022808031CAA03AA0201301E
:1015F6000310A80CA70CFF3E031DFB2A0130AB020B
:10160600031D062B072BEA2A2A08A8002908A7008B
:10161600080083120313AD01AB1F122B132B1A2BD9
:10162600AA09AB09AA0A0319AB0AAD01AD0AA91F9B
:101636001D2B1E2B232BA809A909A80A0319A90AE1
:10164600280829040319282B292B582BAC01AC0A8E
:10165600372B01300310A80DA90DFF3E031D2D2BBE
:101666000130F5007508AC07A91F3A2B3B2B2C2B34
:1016760029082B02031D412B28082A02031C442B90
:10168600452B4B2B2808AA022908031CAB03AB02E7
:1016960001300310A90CA80CFF3E031D4C2B013092
:1016A600AC02031D572B582B3B2B2D0803195C2B23
:1016B6005D2B622BAA09AB09AA0A0319AB0A2B08F0
:1016C600A9002A08A800080083120313A501A11F78
:1016D6006D2B6E2B752BA009A109A00A0319A10A6F
:1016E600A501A50AA31F782B792B822BA209A30992
:1016F600A20A0319A30A0130F4007408A506A6017C
:10170600A701200821040319892B8A2BC12BA401C8
:10171600A40A982B01300310A00DA10DFF3E031D56
:101726008E2B0130F4007408A407A11F9B2B9C2B61
:101736008D2B01300310A60DA70DFF3E031D9D2B1B
:1017460021082302031DA92B20082202031CAC2B0F
:10175600AD2BB42B2008A2022108031CA303A3026D
:10176600261401300310A10CA00CFF3E031DB52B5F
:101776000130A402031DC02BC12B9C2B2508031985
:10178600C52BC62BCB2BA609A709A60A0319A70AA0
:101796002708A1002608A000080083120313B4003E
:1017A6002D08B2002C08B1002F08A1002E08A000B9
:1017B6003208A3003108A2000A128A11B5270A12BC
:1017C6008A15831203132108B2002008B1000130E4
:1017D600B0003008B40731083204031DF32BF42B94
:1017E600D72B34088400831380010130B4022F08FC
:1017F600A8002E08A7002D08AA002C08A9000A1286
:101806008A15D0220A128A15831203132708B000FC
:101816003008B3002F08A1002E08A0002D08A30051
:101826002C08A2000A128A11B5270A128A158312F9
:1018360003132108AD002008AC000A303302031C54
:10184600252C262C2A2C0730B0003008B307303060
:10185600B0003008B3073308B000340884003008FD
:10186600831380000130B4022C082D04031D3C2C88
:101876003D2CFA2B0130B0003008B40708000310E5
:10188600831203134A0D4B0DCC004C08D2005208AC
:10189600031D4E2C4F2C582C0030CB000030CA00B4
:1018A6000030C9000030C800BD2C4808CC004908EB
:1018B600CD004A08CE004B08CF001F300310CF0CD6
:1018C600CE0CCD0CCC0CFF3E031D612C4C08D00079
:1018D6005008D100CA17FF30C805FF30C905FF30D0
:1018E600CA050030CB059630D202D21F7B2C7C2C49
:1018F600962C5208803A973E0318822C832C842C0F
:101906004F2C01300310CB0CCA0CC90CC80CFF3E7F
:10191600031D852C0130CC004C08D207031D942CE6
:10192600952C842CAD2C20305202031C9B2C9C2C15
:10193600A82C4F2C0130CC000310C80DC90DCA0DC0
:10194600CB0DCC0B9F2C0130D2025208031DAC2CC0
:10195600AD2C9D2C51080319B12CB22CBD2CC809F5
:10196600C909CA09CB09C80A0319C90A0319CA0A47
:101976000319CB0A080083120313B4002D30AF00FD
:101986002F08B2000C2E253038060319CB2CCC2C90
:10199600D82C3808AF00340884002F088313800041
:1019A6000130AF002F08B4070C2EB3012C088400B9
:1019B6000A128A150A200A128A152E3A031DE42CE9
:1019C600E52C1C2D0130AF002F08AC07B7010B2DFD
:1019D600831203133708AF002F08F4000A300A12E7
:1019E6008A153F210A128A1583120313B0003008A4
:1019F600B7002C0884000A128A150A200A128A15D2
:101A0600D03EAF002F08B7070130AF002F08AC0754
:101A16002C0884000A128A150A200A128A150A124C
:101A26008A15F2200A128A1503181A2D1B2DEB2C83
:101A36001D2DB701013083120313AC07FF302C07AD
:101A460084000A128A150A200A128A15B800AF0005
:101A5600B0013008003A0319312D0C2E2F08003A38
:101A660003191E2E643A03193C2D0D3A03193C2D19
:101A76000C2E3208840083130008B500840A00087F
:101A8600B6000230AF002F08B207B61F4B2D4C2D03
:101A9600552D0330AF002F08B304B509B609B50AB2
:101AA6000319B60A3708031D592D5A2D642D35081A
:101AB6003604031D5F2D602D642D0130AF002F0805
:101AC600B707B801B80A3808AF002F07013E8400EF
:101AD6000A128A150A200A128A15B0000A128A15F5
:101AE6000A200A128A15B10031083602031D7D2D1F
:101AF600300835020318802D812D822D8C2D013062
:101B0600AF002F08B80705303806031D8B2D8C2D26
:101B1600662D3708AF00B001AF1BB0033008803A1E
:101B2600803C031D982D2F08380203189B2D9C2DF1
:101B36009D2DB72D831203133708AF00B001AF1BDD
:101B4600B0033008803AB10080303102031DAD2D5C
:101B560038082F020318B02DB12DB72D83120313A9
:101B66003808AF002F08B700831203133308033970
:101B76000319BE2DBF2D032E2D30AF00340884006F
:101B86002F08831380000130AF002F08B407032EFF
:101B96000A30A7000030A8003708AF002F07013E23
:101BA60084000A128A150A200A128A15A0000A124F
:101BB6008A150A200A128A15A1003608A3003508DC
:101BC600A2000A128A11B5270A128A158312031374
:101BD6002108AA002008A9000A128A15D0220A1292
:101BE6008A15831203132708303EB0003008B80068
:101BF6003808AF00340884002F0883138000C62DF0
:101C0600FF30AF002F08B707370A031D0B2E0C2E27
:101C1600CB2D0130AC07FF302C0784000A128A1541
:101C26000A200A128A15AF002F08B8003808031DCB
:101C36001D2E1E2EC62C3408840083138001080036
:101C4600831203134F088039D0005008D9004F087B
:101C5600D0005007D1005108E000CE1F332E342E9D
:101C6600352E601460080319392E3A2E4A2E600A62
:101C7600031D3E2E3F2E472E0030CF000030CE00F3
:101C86000030CD000030CC00CE17CF01522E0030F0
:101C9600CF000030CE000030CD000030CC004B0825
:101CA6008039D0005008D9064B08D0005007D10023
:101CB6005108E100CA1F602E612E622E6114610870
:101CC6000319662E672E772E610A031D6B2E6C2E66
:101CD600742E0030CB000030CA000030C90000303E
:101CE600C800CA17CB017F2E0030CB000030CA00D7
:101CF6000030C9000030C8004B084A0449044804B3
:101D0600031D862E872EA02E0030CF000030CE0079
:101D16000030CD000030CC008030CE047F30CF04C0
:101D26005908D0005008CF044F08CB004E08CA000F
:101D36004D08C9004C08C800FF2F6008031DA42EDB
:101D4600A52EAE2E0030CB000030CA000030C900F0
:101D56000030C800FF2F6008D000D1015108D30021
:101D660061085002D200031CD30352087F3EDA00FA
:101D760053080318013E003EDB004F08D8004E080A
:101D8600D7004D08D6004C08D5000030CF000030F3
:101D9600CE000030CD000030CC000030DF00003037
:101DA600DE000030DD000030DC00E101242F610898
:101DB6000319DE2EDF2EFF2E0130D0000310D50DC5
:101DC600D60DD70DD80DD00BE12E0130D000031063
:101DD600CC0DCD0DCE0DCF0DD00BEA2EDF1FF42E80
:101DE600F52EF62E4C140130D0000310DC0DDD0D5F
:101DF600DE0DDF0DD00BF82E4B085802031D0D2FFC
:101E06004A085702031D0D2F49085602031D0D2FC0
:101E160048085502031C102F112F202F5F17480862
:101E2600D5024908031C490FD6024A08031C4A0F6B
:101E3600D7024B08031C4B0FD8020130D0005008C4
:101E4600E1071A306102031C292F2A2FDA2E5808BF
:101E56005704560455040319312F322F512F5C14A1
:101E6600512F0130D0000310CC0DCD0DCE0DCF0D6E
:101E7600D00B362FDF1F402F412F422F4C1401303D
:101E8600D0000310DC0DDD0DDE0DDF0DD00B442F71
:101E9600FF30DA070318DB0AFF30DB07CE1F542FAB
:101EA600552F342FE101DF1F592F5A2F762FFF3080
:101EB6005C05D000FF305D05D100FF305E05D20025
:101EC6007F305F05D30053085204510450040319B0
:101ED6006D2F6E2F712FE101E10A762F4C1C742FA6
:101EE600752F762F6E2F610803197A2F7B2FAC2F53
:101EF6000130CC07003003180130CD07003003183D
:101F06000130CE07003003180130CF074F1C8C2F4D
:101F16008D2FAC2F4C08D0004D08D1004E08D200B2
:101F26004F08D3000130D400530DD30CD20CD10C82
:101F3600D00CD40B972F5308CF005208CE0051086F
:101F4600CD005008CC000130DA070318DB0A003058
:101F5600DB075B08803AFF0080307F02031DB52F48
:101F6600FF305A02031CB82FB92FC72FFF30831238
:101F76000313DA000030DB000030CF000030CE0063
:101F86000030CD000030CC00831203135B08803A8A
:101F9600FF0080307F02031DD22F01305A02031842
:101FA600D52FD62FE32F83120313DA01DB0100307E
:101FB600CF000030CE000030CD000030CC00D9017B
:101FC600831203135A08D0005008E000601CEC2F5F
:101FD600ED2FEF2FCE17F32F7F30D0005008CE0510
:101FE6006008D0000310500CD1005108CF005908EA
:0A1FF600D0005008CF04972E080019
:04400E00D4E0FFFFFC
:00000001FF
