:020000040000FA
:060000000A128A110C280F
:10000800FE00030EF0000A08F1000A128A156C2B94
:100018000A128A110F28FA01FB0183135E3084004B
:1000280070300A128A151E230A128A11A030840021
:10003800D7300A128A151E230A128A1183010A125E
:100048008A15592B8312031329088039AE002E080C
:10005800B3002908AE002E07AF002F08B900A81F6B
:100068003628372838283914390803193C283D28F8
:100078004C28390A031D412842284A280030A90083
:100088000030A8000030A7000030A600A8175428A8
:100098000030A9000030A8000030A7000030A600FA
:1000A8002D088039AE002E08B3062D08AE002E07A5
:1000B800AF002F08B400AC1F6228632864283414EA
:1000C80034080319682869287828340A031D6D281C
:1000D8006E2876280030AD000030AC000030AB0050
:1000E8000030AA00AC1780280030AD000030AC000A
:1000F8000030AB000030AA00340803198428852892
:100108008A283908031D89288A2893280030A900DD
:100118000030A8000030A7000030A600862B260873
:10012800AE002E08F2002C080A128A1557240A126B
:100138008A11730883120313BF007208BE003E08B9
:10014800AE00AF01B001B1013108B8003008B70006
:100158002F08B6002E08B5003F08AE00AF01B00169
:10016800B1013108BD003008BC002F08BB002E08C3
:10017800BA002708AE002E08F2002B080A128A15CA
:1001880057240A128A11730883120313BF007208D6
:10019800BE003E08AE00AF01B001B1012E08B507A0
:1001A8002F0803110318013E0319DB28B60730088E
:1001B80003110318013E0319E228B7073108031198
:1001C8000318013E0319E928B8073F08AE00AF013C
:1001D800B001B1012E08BA072F0803110318013E18
:1001E8000319F728BB07300803110318013E031948
:1001F800FE28BC07310803110318013E031905291D
:10020800BD072808AE002E08F2002A080A128A152F
:1002180057240A128A11730883120313BF00720845
:10022800BE003E08AE00AF01B001B1012E08B5070F
:100238002F0803110318013E03192329B6073008B4
:1002480003110318013E03192A29B70731080311BE
:100258000318013E03193129B8073F08AE00AF0162
:10026800B001B1012E08BA072F0803110318013E87
:1002780003193F29BB07300803110318013E03196E
:100288004629BC07310803110318013E03194D29FB
:10029800BD070830AE000310B50DB60DB70DB80D8B
:1002A800AE0B4F292708AE002E08F2002A080A12C2
:1002B8008A1557240A128A11730883120313BF0080
:1002C8007208BE003E08AE003F08AF00B001B101A1
:1002D8002E08B5072F0803110318013E03197529C5
:1002E800B607300803110318013E03197C29B70724
:1002F800310803110318013E03198329B80726089A
:10030800AE002E08F2002B080A128A1557240A128A
:100318008A11730883120313BF007208BE003E08D7
:10032800AE003F08AF00B001B1012E08B5072F0895
:1003380003110318013E0319A229B6073008031157
:100348000318013E0319A929B70731080311031837
:10035800013E0319B029B8070830AE000310B50DE7
:10036800B60DB70DB80DAE0BB2292608AE002E0893
:10037800F2002A080A128A1557240A128A117308E9
:1003880083120313BF007208BE003E08AE003F0888
:10039800AF00B001B1012E08B5072F0803110318EB
:1003A800013E0319D829B607300803110318013E86
:1003B8000319DF29B707310803110318013E031990
:1003C800E629B8072708AE002E08F2002C080A1202
:1003D8008A1557240A128A11730883120313BF005F
:1003E8007208BE003E08AE003F08AF00B001B10180
:1003F8002E08BA072F0803110318013E0319052A0E
:10040800BB07300803110318013E03190C2ABC0767
:10041800310803110318013E0319132ABD072808E0
:10042800AE002E08F2002B080A128A1557240A1269
:100438008A11730883120313BF007208BE003E08B6
:10044800AE003F08AF00B001B1012E08BA072F086F
:1004580003110318013E0319322ABB0730080311A0
:100468000318013E0319392ABC0731080311031880
:10047800013E0319402ABD072808AE002E08F200E5
:100488002C080A128A1557240A128A117308831233
:100498000313BF007208BE003E08AE003F08AF005D
:1004A800B001B10108300310AE0DAF0DB00DB10DA4
:1004B800FF3E031D572A2E08BA072F0803110318F9
:1004C800013E0319682ABB07300803110318013ECF
:1004D80003196F2ABC07310803110318013E0319D9
:1004E800762ABD073508AE003608AF003708B000D9
:1004F8003808B10018300310B10CB00CAF0CAE0CBA
:10050800FF3E031D7F2A2E08BA072F080311031880
:10051800013E0319902ABB07300803110318013E56
:100528000319972ABC07310803110318013E031960
:100538009E2ABD070830AE000310B50DB60DB70DE5
:10054800B80DAE0BA02A39083407AE00AF01AF0DC5
:100558002E08823EBE002F080318013EFF3EBF0052
:10056800D22A0130AE000310BA0DBB0DBC0DBD0D73
:10057800AE0BB72AB81FC12AC22AC32A3A140130BF
:10058800AE000310B50DB60DB70DB80DAE0BC52AEC
:10059800FF30BE070318BF0AFF30BF07BC1FD52AAC
:1005A800D62AB52AB401B81FDA2ADB2AF72AFF307F
:1005B8003505AE00FF303605AF00FF303705B00017
:1005C8007F303805B100310830042F042E04031998
:1005D800EE2AEF2AF22AB401B40AF72A3A1CF52ABD
:1005E800F62AF72AEF2A34080319FB2AFC2A2D2BAE
:1005F8000130BA07003003180130BB070030031878
:100608000130BC07003003180130BD073D1C0D2B1D
:100618000E2B2D2B3A08AE003B08AF003C08B0006B
:100628003D08B1000130B200310DB10CB00CAF0C77
:10063800AE0CB20B182B3108BD003008BC002F08D7
:10064800BB002E08BA000130BE070318BF0A0030ED
:10065800BF073F08803AFF0080307F02031D362B1A
:10066800FF303E02031C392B3A2B452B7F30831277
:100678000313BD008030BC000030BB000030BA005E
:100688007A2B831203133F08803AFF0080307F02E1
:10069800031D502B01303E020318532B542B602BA3
:1006A800003083120313BD000030BC000030BB00D3
:1006B8000030BA00B3017A2B831203133E08AE0050
:1006C8002E08B900FF30BA05FF30BB057F30BC05E6
:1006D8000030BD05391C712B722B732BBC173908E0
:1006E800AE0003102E0CAF002F08BD003308AE007B
:1006F8002E08BD043D08A9003C08A8003B08A70037
:100708003A08A6000800831203131F083F3940382F
:100718009F001F14831603139F131F129F1201308B
:10072800F5008030F6000A128A15E2230A128A11AF
:10073800C73083120313DA00A12BDA0BA02BA42BEA
:10074800C330831203139F051F149F149F18AD2BEA
:10075800AE2BAA2B1E08DA005A08FB004330C30050
:100768007F30C2000030C1000030C0004030A90016
:10077800A030A8000030A7000030A6007B08DA00EF
:10078800DB01DC01DD015D08F5005C08F4005B08B5
:10079800F3005A08F20001300A128A1189260A1257
:1007A8008A11750883120313AD007408AC0073082E
:1007B800AB007208AA000A128A1126200A128A11AE
:1007C800831203132908C7002808C6002708C50094
:1007D8002608C4000A128A1523260A128A118312CF
:1007E8000313430883160313A70083120313420855
:1007F80083160313A60083120313410883160313F9
:10080800A50083120313400883160313A4002708C6
:1008180083120313AD0083160313260883120313F0
:10082800AC0083160313250883120313AB00831649
:100838000313240883120313AA004230A900C83006
:10084800A8000030A7000030A6000A128A1126204E
:100858000A128A11831203132908C3002808C20048
:100868002708C1002608C0000A128A1145270A1263
:100878008A11831203134108EF004008EE000A3082
:10088800A4000030A5006F08A7006E08A6000A1291
:100898008A15ED240A128A11831203132508ED0024
:1008A8002408EC006D08AA006C08A9000A30AB0007
:1008B8000030AC00D2300A128A1508240A128A11B4
:1008C8000A3083120313A4000030A5000A30F20096
:1008D8000030F3006F08F5006E08F4000A128A155C
:1008E80048250A128A11730883120313A700720895
:1008F800A6000A128A15ED240A128A11831203131C
:100908002508EB002408EA006B08AA006A08A90079
:100918000A30AB000030AC00CD300A128A1508242A
:100928000A128A110A3083120313A4000030A500AA
:100938006430F2000030F3006F08F5006E08F40030
:100948000A128A1548250A128A117308831203139A
:10095800A7007208A6000A128A15ED240A128A1145
:10096800831203132508E9002408E8006908AA008F
:100978006808A9000A30AB000030AC00C8300A1281
:100988008A1508240A128A11D23083120313DA0056
:100998005A08F200CD300A128A1580240A128A11E8
:1009A800153083120313DA005A08F200C3300A1212
:1009B8008A15C1230A128A11CD3083120313DA0073
:1009C8005A08F200C3300A128A1580240A128A11C2
:1009D800C33083120313DA005A08F200C8300A122F
:1009E8008A1580240A128A11C73083120313DA0089
:1009F800DA0BFC2C831203131F08C33904389F0039
:100A08001F149F149F18092D0A2D062D1E08DA00A1
:100A18005A08FA004330C3007F30C2000030C100DA
:100A28000030C0004030A900A030A8000030A70066
:100A38000030A6007A08DA00DB01DC01DD015D0880
:100A4800F5005C08F4005B08F3005A08F200013076
:100A58000A128A1189260A128A1175088312031349
:100A6800AD007408AC007308AB007208AA000A1243
:100A78008A1126200A128A11831203132908C70033
:100A88002808C6002708C5002608C4000A128A15C7
:100A980023260A128A1183120313430883160313A9
:100AA800A30083120313420883160313A2008312C0
:100AB8000313410883160313A1008312031340088C
:100AC80083160313A000230883120313AD008316B3
:100AD8000313220883120313AC008316031321089F
:100AE80083120313AB008316031320088312031326
:100AF800AA004230A900C830A8000030A700003082
:100B0800A6000A128A1126200A128A1183120313D8
:100B18002908C3002808C2002708C1002608C00009
:100B28000A128A1145270A128A11831203134108EF
:100B3800E7004008E6000A30A4000030A500670876
:100B4800A7006608A6000A128A15ED240A128A115F
:100B5800831203132508E5002408E4006508AA00A9
:100B68006408A9000A30AB000030AC00BE300A129D
:100B78008A1508240A128A110A3083120313A40062
:100B88000030A5000A30F2000030F3006708F500D5
:100B98006608F4000A128A1548250A128A11730891
:100BA80083120313A7007208A6000A128A15ED24FF
:100BB8000A128A11831203132508E3002408E200AD
:100BC8006308AA006208A9000A30AB000030AC0034
:100BD800B9300A128A1508240A128A110A308312B7
:100BE8000313A4000030A5006430F2000030F300C5
:100BF8006708F5006608F4000A128A1548250A12E3
:100C08008A11730883120313A7007208A6000A1238
:100C18008A15ED240A128A11831203132508E100AC
:100C28002408E0006108AA006008A9000A30AB00A7
:100C38000030AC00B4300A128A1508240A128A114E
:100C4800BE3083120313DA005A08F200B9300A12D0
:100C58008A1580240A128A11153083120313DA00C8
:100C68005A08F200AF300A128A15C1230A128A11F3
:100C7800B93083120313DA005A08F200AF300A12AF
:100C88008A1580240A128A11AF3083120313DA00FE
:100C98005A08F200B4300A128A1580240A128A11FE
:100CA800C0300A128A1535230A128A11C830F50095
:100CB8000030F6000A128A15E2230A128A1112304D
:100CC800F5008030F6000A128A15E2230A128A110A
:100CD800B430F5000030F6000A128A15E2230A1231
:100CE8008A111230F5008030F6000A128A15E223C4
:100CF8000A128A11AA30F5000030F6000A128A1585
:100D0800E2230A128A119C2B080083120313A00005
:100D180020080319902E912EA52EF51F942E952E9E
:100D2800A52E7209A2007309A3007409A40075090D
:100D3800A500A20A0319A30A0319A40A0319A50AFC
:100D4800AD2E7508A5007408A4007308A3007208E6
:100D5800A2007508740473047204031DB42EB52E22
:100D6800BE2E0030F5000030F4000030F3000030F3
:100D7800F200442F9630F6007608A100D02E0130FC
:100D8800F6007608A10701300310A50CA40CA30CEB
:100D9800A20CFF3E031DC82EFE302505031DD52ECF
:100DA800D62EC32EF22E0130F6007608A1070130A8
:100DB800A207003003180130A307003003180130E0
:100DC800A407003003180130A50701300310A50C53
:100DD800A40CA30CA20CFF3E031DEA2EFF30250530
:100DE800031DF72EF82ED72E042F0130A102013053
:100DF800F6000310A20DA30DA40DA50DF60BFD2EF4
:100E0800A41B072F082F0E2F0230210203180D2FC5
:100E18000E2FF92E2118112F122F1A2FFF30A2058D
:100E2800FF30A3057F30A405FF30A5050310A10CF2
:100E38002108F600F701F801F90118300310F60D42
:100E4800F70DF80DF90DFF3E031D222F7608A204B9
:100E58007708A3047808A4047908A50420080319CE
:100E6800362F372F3C2FF51F3A2F3B2F3C2FA51736
:100E78002508F5002408F4002308F3002208F200EE
:100E88000800031083120313420D430DC4004408E5
:100E9800CA004A08031D512F522F5B2F0030C30090
:100EA8000030C2000030C1000030C000C02F400830
:100EB800C4004108C5004208C6004308C7001F30E7
:100EC8000310C70CC60CC50CC40CFF3E031D642FD1
:100ED8004408C8004808C900C217FF30C005FF30E1
:100EE800C105FF30C2050030C3059630CA02CA1FCB
:100EF8007E2F7F2F992F4A08803A973E0318852F17
:100F0800862F872F522F01300310C30CC20CC10C3F
:100F1800C00CFF3E031D882F0130C4004408CA07D7
:100F2800031D972F982F872FB02F20304A02031CBC
:100F38009E2F9F2FAB2F522F0130C4000310C00DDE
:100F4800C10DC20DC30DC40BA22F0130CA024A083D
:100F5800031DAF2FB02FA02F49080319B42FB52FA9
:100F6800C02FC009C109C209C309C00A0319C10AAF
:100F78000319C20A0319C30A080072087304031983
:100F8800C62FC72FF62FF701F70AD52F0130031008
:100F9800F20DF30DFF3E031DCB2F0130F60076084E
:100FA800F707F31FD82FD92FCA2F73087502031D0F
:100FB800DF2F72087402031CE22FE32FE92F720857
:100FC800F4027308031CF503F50201300310F30C57
:100FD800F20CFF3E031DEA2F0130F702031DF52F27
:0E0FE800F62FD92F7508F3007408F2000800E8
:10100000FF1B0A2883137F1883170008840A03191B
:10101000FF0A080008308A000408840A82070034A6
:1010200053343134203420342034203420345334A9
:1010300032342034203420342034203453343334B8
:0C10400000345634203400342E340034C8
:10163C0064008001840A04060319003404061F2B7D
:10164C008312031387162730F300F530F200F20BE8
:10165C002D2BF30B2D2B8312031387120800F40090
:10166C000A128A152E240A128A157408831203137F
:10167C008600871107120A128A1526230A128A1568
:10168C000800F4000A128A152E240A128A1574080E
:10169C00831203138600871507120A128A15262354
:1016AC000A128A1508000A128A15A2230A128A1530
:1016BC000A128A1583230A128A150A128A118723A1
:1016CC000A128A155E2B0A128A110C288312031334
:1016DC008C1E712B722B7C2B8C121A08013E9900DC
:1016EC0083160313981C7B2B7C2B762B71088A009A
:1016FC00700E8300FE0E7E0E090038300A128A1519
:10170C0035230A128A150C300A128A1535230A124F
:10171C008A1501300A128A1535230A128A150630E9
:10172C000A128A1535230A128A1580300A128A1574
:10173C0035230A128A150800033083160317880014
:10174C008901033083160313850086018801870104
:10175C0089018312031385018601870188018901A0
:10176C00831603130F088F3960388F008F110F11F8
:10177C008F100F140800F5007508F3007308F400BF
:10178C00CF2B0130F3007308F4070130F30073081A
:10179C00F207720884000A128A150A200A128A15A6
:1017AC00F300740884007308831380000008031D81
:1017BC00E02BE12BC72B0800F72B7608FF007508F0
:1017CC0084000A128A1500200A128A150A128A1538
:1017DC0047230A128A150130F5070318F60A003060
:1017EC00F607760883120313FF00750884000A12AB
:1017FC008A1500200A128A15003A031D062C072CA4
:10180C00E32B080083120313AF00AA1F0E2C0F2C1E
:10181C001F2C2D30AD002F0884002D088313800061
:10182C000130AD002D08AF07A909AA09A90A0319AF
:10183C00AA0A2A08A1002908A0002C08A3002B083A
:10184C00A2002F080A128A15B1250A128A1508005F
:10185C00FF308312031386008030F2007208860575
:10186C008711071687122730F300F530F200F20BC0
:10187C003D2CF30B3D2C8312031387168030060688
:10188C00031D492C4A2C562C87122730F300F530B7
:10189C00F200F20B4F2CF30B4F2C83120313871611
:1018AC00080083120313A400A001A1017208F40024
:1018BC00F5017408A2007508A300241C662C672C83
:1018CC006D2C2208A0070318A10A2308A1070130D8
:1018DC000310A20DA30DFF3E031D6E2C0310A40CD0
:1018EC002408031D7A2C7B2C632C2108F300200880
:1018FC00F2000800F5007508F3007308F4008A2C58
:10190C000130F3007308F407740884008313000893
:10191C00031D912C922C862C9B2C0130F300730808
:10192C00F4070130F3007308F20772088400000812
:10193C00F30074088400730880000008031DA72CB2
:10194C00A82C932C0800F701F801720873040319F2
:10195C00B02CB12CE82CF901F90ABF2C0130031082
:10196C00F20DF30DFF3E031DB52C0130F600760889
:10197C00F907F31FC22CC32CB42C01300310F70D44
:10198C00F80DFF3E031DC42C73087502031DD02CEB
:10199C0072087402031CD32CD42CDB2C7208F402B6
:1019AC007308031CF503F502771401300310F30CD4
:1019BC00F20CFF3E031DDC2C0130F902031DE72C59
:1019CC00E82CC32C7808F3007708F2000800F90122
:1019DC0083120313A71FF32CF42CFB2CA609A709C5
:1019EC00A60A0319A70AF901F90AA51FFE2CFF2C58
:1019FC00042DA409A509A40A0319A50A2408250481
:101A0C000319092D0A2D392DF801F80A182D01306A
:101A1C000310A40DA50DFF3E031D0E2D0130F70084
:101A2C007708F807A51F1B2D1C2D0D2D2508270247
:101A3C00031D222D24082602031C252D262D2C2DBA
:101A4C002408A6022508031CA703A70201300310D3
:101A5C00A50CA40CFF3E031D2D2D0130F802031D17
:101A6C00382D392D1C2D790803193D2D3E2D432D74
:101A7C00A609A709A60A0319A70A2708A50026087C
:101A8C00A400080083120313A101F31F4E2D4F2D48
:101A9C00562DF209F309F20A0319F30AA101A10A5E
:101AAC00F51F592D5A2D632DF409F509F40A031964
:101ABC00F50A0130F6007608A106A201A30172080E
:101ACC00730403196A2D6B2DA22DA001A00A792D88
:101ADC0001300310F20DF30DFF3E031D6F2D01308D
:101AEC00F6007608A007F31F7C2D7D2D6E2D01309E
:101AFC000310A20DA30DFF3E031D7E2D730875026E
:101B0C00031D8A2D72087402031C8D2D8E2D952DAC
:101B1C007208F4027308031CF503F5022214013059
:101B2C000310F30CF20CFF3E031D962D0130A002A6
:101B3C00031DA12DA22D7D2D21080319A62DA72D46
:101B4C00AC2DA209A309A20A0319A30A2308F300C6
:101B5C002208F200080083120313A8002108A60033
:101B6C002008A5002308F3002208F2002608F5003F
:101B7C002508F4000A128A15A9240A128A1573087A
:101B8C0083120313A6007208A5000130A4002408D8
:101B9C00A80725082604031DD42DD52DB82D2808FB
:101BAC008400831380010130A8022308F30022086B
:101BBC00F2002108F5002008F4000A128A11C1274E
:101BCC000A128A15720883120313A4002408A700B2
:101BDC002308F3002208F2002108F5002008F40085
:101BEC000A128A15A9240A128A1573088312031380
:101BFC00A1007208A0000A302702031C062E072E33
:101C0C000B2E0730A4002408A7073030A4002408AA
:101C1C00A7072708A4002808840024088313800041
:101C2C000130A80220082104031D1D2E1E2EDB2DC1
:101C3C000130A4002408A8070800831203134708E6
:101C4C008039C8004808D1004708C8004807C900B7
:101C5C004908D800C61F332E342E352E5814580878
:101C6C000319392E3A2E4A2E580A031D3E2E3F2EAA
:101C7C00472E0030C7000030C6000030C5000030D1
:101C8C00C400C617C701522E0030C7000030C60072
:101C9C000030C5000030C40043088039C800480833
:101CAC00D1064308C8004807C9004908D900C21F1B
:101CBC00602E612E622E591459080319662E672E58
:101CCC00772E590A031D6B2E6C2E742E0030C30018
:101CDC000030C2000030C1000030C000C217C30188
:101CEC007F2E0030C3000030C2000030C100003035
:101CFC00C0004308420441044004031D862E872E75
:101D0C00A02E0030C7000030C6000030C5000030E7
:101D1C00C4008030C6047F30C7045108C80048088E
:101D2C00C7044708C3004608C2004508C100440860
:101D3C00C000FF2F5808031DA42EA52EAE2E003078
:101D4C00C3000030C2000030C1000030C000FF2FC3
:101D5C005808C800C9014908CB0059084802CA00F4
:101D6C00031CCB034A087F3ED2004B080318013EEC
:101D7C00003ED3004708D0004608CF004508CE00EF
:101D8C004408CD000030C7000030C6000030C5004C
:101D9C000030C4000030D7000030D6000030D50031
:101DAC000030D400D901242F59080319DE2EDF2E60
:101DBC00FF2E0130C8000310CD0DCE0DCF0DD00D70
:101DCC00C80BE12E0130C8000310C40DC50DC60DA3
:101DDC00C70DC80BEA2ED71FF42EF52EF62E441481
:101DEC000130C8000310D40DD50DD60DD70DC80B7E
:101DFC00F82E43085002031D0D2F42084F02031DFD
:101E0C000D2F41084E02031D0D2F40084D02031CDF
:101E1C00102F112F202F57174008CD024108031CFB
:101E2C00410FCE024208031C420FCF024308031C91
:101E3C00430FD0020130C8004808D9071A305902A4
:101E4C00031C292F2A2FDA2E50084F044E044D0460
:101E5C000319312F322F512F5414512F0130C80038
:101E6C000310C40DC50DC60DC70DC80B362FD71FDB
:101E7C00402F412F422F44140130C8000310D40DC1
:101E8C00D50DD60DD70DC80B442FFF30D207031834
:101E9C00D30AFF30D307C61F542F552F342FD90127
:101EAC00D71F592F5A2F762FFF305405C800FF30FB
:101EBC005505C900FF305605CA007F305705CB00C9
:101ECC004B084A044904480403196D2F6E2F712FD7
:101EDC00D901D90A762F441C742F752F762F6E2FAB
:101EEC00590803197A2F7B2FAC2F0130C40700300F
:101EFC0003180130C507003003180130C607003045
:101F0C0003180130C707471C8C2F8D2FAC2F4408AA
:101F1C00C8004508C9004608CA004708CB00013074
:101F2C00CC004B0DCB0CCA0CC90CC80CCC0B972F8E
:101F3C004B08C7004A08C6004908C5004808C40039
:101F4C000130D2070318D30A0030D3075308803A64
:101F5C00FF0080307F02031DB52FFF305202031C9F
:101F6C00B82FB92FC72FFF3083120313D2000030C4
:101F7C00D3000030C7000030C6000030C500003070
:101F8C00C400831203135308803AFF0080307F0291
:101F9C00031DD22F013052020318D52FD62FE32F59
:101FAC0083120313D201D3010030C7000030C600E6
:101FBC000030C5000030C400D10183120313520855
:101FCC00C8004808D800581CEC2FED2FEF2FC6176F
:101FDC00F32F7F30C8004808C6055808C800031006
:101FEC00480CC9004908C7005108C8004808C70474
:041FFC00972E080014
:04400E00D4E0FFFFFC
:00000001FF
