:020000040000FA
:100000000A128A11F32FFF1B0D2883137F18831701
:100010000008840A0319FF0A080000308A00040857
:10002000840A82070034013400340A340034643412
:100030000034E8340334103427345334313420345A
:1000400020342034203420345334323420342034CB
:1000500020342034203453343334003425342E34C7
:1000600033346934003420342034203400342034D4
:0C00700056342034003443342034003473
:10038800F0007008831203139300080064008001D2
:10039800840A0406031900340406CB2983160313C0
:1003A800141CD729D829D22983120313130808004B
:1003B8008312031307152730F100F530F000F00B16
:1003C800E329F10BE3298312031307110800F20054
:1003D8000A128A11B8220A128A11720883120313A8
:1003E8008800071487100A128A11DC210A128A1160
:1003F8000800F2000A128A11B8220A128A11720839
:10040800831203138800071087100A128A11DC214F
:100418000A128A110800F100F0013A30710203183B
:10042800162A172A1F2A30307102031C1C2A1D2A7B
:100438001F2AF001F00A700C0800F300F201731C87
:10044800262A272A2B2A7008F1007108F2070310C0
:10045800F00D0310F30C7308031D332A342A232AE2
:1004680072080800831603139413141383120313DA
:10047800941614161408F0390238940083160313DE
:100488008712071687118C150B178B178312031306
:100498008C11080038300A128A11FD210A128A11BB
:1004A8000C300A128A11FD210A128A1101300A122F
:1004B8008A11FD210A128A1106300A128A11FD21B9
:1004C8000A128A1180300A128A11FD210A128A1131
:1004D8000800F401F501701C722A732A792A72083F
:1004E800F4070318F50A7308F50701300310F20D35
:1004F800F30DFF3E031D7A2A01300310F10CF00CB6
:10050800FF3E031D812A70087104031D8C2A8D2A61
:100518006F2A7508F1007408F0000800A72A74080B
:10052800FF00730884000A128A1103200A128A1134
:100538000A128A11EB210A128A110130F3070318F3
:10054800F40A0030F407740883120313FF007308D9
:1005580084000A128A1103200A128A11003A031D24
:10056800B62AB72A932A0800FF308312031388009B
:100578008030F000700888050710871407112730AD
:10058800F100F530F000F00BC72AF10BC72A8312EF
:100598000313071580300806031DD32AD42AE02A3E
:1005A80007112730F100F530F000F00BD92AF10BD4
:1005B800D92A831203130715080083160317880125
:1005C800890183160313850186018801903087000D
:1005D800890183120313CB01CB0A850186018701A8
:1005E800880189010B178B178C11831603138C153F
:1005F800831203130C12831603139A0119309900FE
:100608002430980090308312031398008316031740
:100618008711831603130F088F3960388F008F11E5
:100628000F118F100F1408007808790403191D2B77
:100638001E2B4D2BFD01FD0A2C2B01300310F80D4C
:10064800F90DFF3E031D222B0130FC007C08FD073D
:10065800F91F2F2B302B212B79087B02031D362BFA
:1006680078087A02031C392B3A2B402B7808FA02B7
:100678007908031CFB03FB0201300310F90CF80C8A
:10068800FF3E031D412B0130FD02031D4C2B4D2B5A
:10069800302B7B08F9007A08F8000800F501F6010C
:1006A800700871040319592B5A2B912BF701F70A7B
:1006B800682B01300310F00DF10DFF3E031D5E2B7A
:1006C8000130F4007408F707F11F6B2B6C2B5D2BBE
:1006D80001300310F50DF60DFF3E031D6D2B71085B
:1006E8007302031D792B70087202031C7C2B7D2B6F
:1006F800842B7008F2027108031CF303F3027514CB
:1007080001300310F10CF00CFF3E031D852B013066
:10071800F702031D902B912B6C2B7608F1007508BE
:10072800F0000800831203132608AA002708AB006C
:100738002808AC002908AD0004300310AA0DAB0D41
:10074800AC0DAD0DFF3E031DA12B2D08F3002C08A9
:10075800F2002B08F1002A08F0002608AE0027084E
:10076800AF002808B0002908B10004300310AE0D0E
:10077800AF0DB00DB10DFF3E031DBA2B0030B20016
:100788001230B3007A30B4000030B5002E08B2023F
:100798002F08031C2F0FD12BD22BB3023008031CB8
:1007A800300FD72BD82BB4023108031C310FDD2BA7
:1007B800DE2BB5023508F7003408F6003308F500DB
:1007C8003208F4000A128A1162240A128A11700887
:1007D8008316031399001815981618121813831204
:1007E8000313181698171813080083120313A1018E
:1007F800F71FFF2B002C072CF609F709F60A031937
:10080800F70AA101A10AF91F0A2C0B2C142CF809CC
:10081800F909F80A0319F90A0130FA007A08A10659
:10082800A201A3017608770403191B2C1C2C532C56
:10083800A001A00A2A2C01300310F60DF70DFF3E87
:10084800031D202C0130FA007A08A007F71F2D2C71
:100858002E2C1F2C01300310A20DA30DFF3E031DEB
:100868002F2C77087902031D3B2C76087802031C8D
:100878003E2C3F2C462C7608F8027708031CF90317
:10088800F902221401300310F70CF60CFF3E031D89
:10089800472C0130A002031D522C532C2E2C21086A
:1008A8000319572C582C5D2CA209A309A20A031975
:1008B800A30A2308F7002208F6000800831203138E
:1008C800A101F31F682C692C762CF009F109F209B3
:1008D800F309F00A0319F10A0319F20A0319F30AD2
:1008E800A101A10AF71F792C7A2C892CF409F509A2
:1008F800F609F709F40A0319F50A0319F60A0319A0
:10090800F70A0130F8007808A1060030A500003089
:10091800A4000030A3000030A20073087204710420
:1009280070040319982C992CE62CA001A00AA92C74
:100938000130F8000310F00DF10DF20DF30DF80B76
:100948009E2C0130F8007808A007F31FAC2CAD2CC2
:100958009C2C0130F8000310A20DA30DA40DA50DC9
:10096800F80BAF2C73087702031DC42C72087602AB
:10097800031DC42C71087502031DC42C7008740271
:10098800031CC72CC82CD72C7008F4027108031C50
:10099800710FF5027208031C720FF6027308031C2C
:1009A800730FF702221401300310F30CF20CF10C50
:1009B800F00CFF3E031DD82C0130A002031DE52CCE
:1009C800E62CAD2C21080319EA2CEB2CF62CA209F5
:1009D800A309A409A509A20A0319A30A0319A40AC9
:1009E8000319A50A2508F3002408F2002308F100DA
:1009F8002208F000080083120313AA002130A30084
:100A08002308A6004B2E25302C0603190C2D0D2D7E
:100A1800192D2C08A3002A088400230883138000BA
:100A28000130A3002308AA074B2EA7012008840041
:100A38000A128A110D200A128A112E3A031D252D39
:100A4800262D5D2D0130A3002308A007AB014C2DF6
:100A5800831203132B08A3002308F0000A300A129C
:100A68008A1121220A128A1183120313A40024086E
:100A7800AB00200884000A128A110D200A128A117C
:100A8800D03EA3002308AB070130A3002308A0072A
:100A9800200884000A128A110D200A128A110A12EB
:100AA8008A110F220A128A1103185B2D5C2D2C2D36
:100AB8005E2DAB01013083120313A007FF3020071E
:100AC80084000A128A110D200A128A11AC00A300B0
:100AD800A4012408003A0319722D4B2E2308003A6A
:100AE80003195D2E643A03197D2D0D3A03197D2DE6
:100AF8004B2E2608840083130008A800840A0008E7
:100B0800A9000230A3002308A607A91F8C2D8D2D4C
:100B1800962D0330A3002308A704A809A909A80A49
:100B28000319A90A2B08031D9A2D9B2DA52D28080A
:100B38002904031DA02DA12DA52D0130A3002308F4
:100B4800AB07AC01AC0A2C08A3002307013E8400C4
:100B58000A128A110D200A128A11A4000A128A1197
:100B68000D200A128A11A50025082902031DBE2D91
:100B7800240828020318C12DC22DC32DCD2D013004
:100B8800A3002308AC0705302C06031DCC2DCD2D62
:100B9800A72D2B08A300A401A31BA4032408803AB3
:100BA800803C031DD92D23082C020318DC2DDD2DD4
:100BB800DE2DF82D831203132B08A300A401A31B19
:100BC800A4032408803AA50080302502031DEE2DD9
:100BD8002C0823020318F12DF22DF82D831203138C
:100BE8002C08A3002308AB0083120313270803393A
:100BF8000319FF2D002E422E2D30A3002A08840051
:100C08002308831380000130A3002308AA07422E7B
:100C18000A30F8000030F9002B08A3002307013E32
:100C280084000A128A110D200A128A11F0000A1291
:100C38008A110D200A128A11F1002908F3002808E8
:100C4800F2000A128A1152230A128A117108FB0053
:100C58007008FA000A128A1118230A128A117808F1
:100C6800303E83120313A4002408AC002C08A30010
:100C78002A088400230883138000072EFF30A3006E
:100C88002308AB072B0A031D4A2E4B2E0C2E0130CE
:100C9800A007FF30200784000A128A110D200A12CB
:100CA8008A11A3002308AC002C08031D5C2E5D2EBE
:100CB800072D2A0884008313800108000A128A116C
:100CC800E1220A128A110A128A1136220A128A119C
:100CD800003083120313A9000030A8002530A700B4
:100CE8008030A6000A128A1196230A128A110A1263
:100CF8008A114E220A128A110B30F3008030F40058
:100D08000A128A1192220A128A11831203130514F5
:100D1800851405154B03031D922E932EE92E0510FD
:100D2800033083120313B7009730B600B60B9A2E20
:100D3800B70B9A2E01300A128A11C4210A128A119D
:100D48000A128A11D2210A128A1183120313B600D9
:100D58003608BB00FF30F6000030F7003B08B6004D
:100D6800B7013608F0003708F100F430F20001301E
:100D7800F3000A128A116D220A128A117108F90009
:100D88007008F8000A128A11F9230A128A117608E3
:100D980083120313B8003808BB000514023083120D
:100DA8000313B8000430B700B930B600B60BDA2E1A
:100DB800B70BDA2EB80BDA2EE12E023083120313AA
:100DC800B6003608CB000130860002304B06031D02
:100DD800EE2EEF2E222F8510033083120313B70057
:100DE8009730B600B60BF62EB70BF62E01300A1266
:100DF8008A11C4210A128A110A128A11D2210A12EE
:100E08008A1183120313B6003608BA00851402301B
:100E180083120313B8000430B700B930B600B60B1C
:100E2800132FB70B132FB80B132F1A2F033083125E
:100E38000313B6003608CB000230860003304B0699
:100E4800031D272F282F7A2F051103308312031330
:100E5800B7009730B600B60B2F2FB70B2F2F0130E6
:100E68000A128A11C4210A128A110A128A11D2217D
:100E78000A128A1183120313B6003608B900FA3031
:100E8800F6000030F7003908B600B7013608F00060
:100E98003708F1007D30F2000030F3000A128A11A1
:100EA8006D220A128A117108F9007008F8000A12F6
:100EB8008A11F9230A128A11760883120313B800DB
:100EC8003808B9000515023083120313B80004303E
:100ED800B700B930B600B60B6F2FB70B6F2FB80B32
:100EE8006F2F762F83120313CB01CB0AC0300A125F
:100EF8008A11FD210A128A111C3083120313B600CD
:100F08003608A0003B08B700B8013708A100380828
:100F1800A20046300A128A11FF240A128A114630AA
:100F2800F3000030F4000A128A1192220A128A1180
:100F38002530F3008030F4000A128A1192220A1236
:100F48008A111C3083120313B6003608A0003A0831
:100F5800B700B8013708A1003808A20041300A12CA
:100F68008A11FF240A128A114130F3000030F4007C
:100F78000A128A1192220A128A112130F300803053
:100F8800F4000A128A1192220A128A111C30831262
:100F98000313B6003608A0003908B700B8013708AF
:100FA800A1003808A2003C300A128A11FF240A1254
:100FB8008A113C30F3000030F4000A128A119222A0
:100FC8000A128A112930F3008030F4000A128A11BB
:100FD80092220A128A11892E0A128A110028831372
:100FE800393084004B300A128A11CA210A128A1138
:080FF80083010A128A11622E26
:04400E00D4E0FFFFFC
:00000001FF
