:020000040000FA
:060000000A128A110C280F
:10000800FE00030EF2000A08F3000A128A111428EF
:100018000A128A110F28F40183010A128A115A2838
:10002800831203130C1F19281A2820281E08F10010
:100038007108F4000C1335288C1D23282428352832
:100048000A128A11A5200A128A1183120313880042
:1000580074080A128A11AF200A128A118312031334
:100068008C1173088A00720E8300FE0E7E0E090042
:100078000130831603178800890121308316031382
:1000880085008601880118308700890183120313CF
:1000980085018601870188018901831603138C1560
:1000A8000B178B17831203138C1108000A128A117D
:1000B8003C200A128A110A128A1177200A128A1120
:1000C8000A128A1190200A128A11831203131F142C
:1000D8009F149F18702871286D2874088800642858
:1000E8000A128A110C28831603139413141383120B
:1000F8000313941614161408F03904389400831660
:10010800031387120712871585168C150B178B1783
:10011800831203138C1108008B170B178316031314
:100128000C17831203130C131F083F3940389F0024
:10013800C3309F051F14831603139F139F121F12AA
:10014800080083160313141CAA28AB28A5288312B9
:10015800031313080800F0007008831203139300B8
:0201680008008D
:04400E00D4E0FFFFFC
:00000001FF
