:020000040000FA
:060000000A128A110C280F
:10000800FE00030EF1000A08F2000A128A114E28B7
:100018000A128A110F28F30183010A128A1114287F
:100028000A128A1164200A128A110A128A11792086
:100038000A128A11831603139F17831203131F14BE
:100048009F149F182828292825283330730203185D
:100058002E282F2832280810881008154A307302D5
:10006800031C372838283B28081488100811333017
:100078007302031C4028412819284A3073020318C8
:1000880046284728192808108814081119280A1220
:100098008A110C28831203130C1F532854285D2837
:1000A800831603131E08F0007008F300831203136D
:1000B8000C1372088A00710E8300FE0E7E0E090072
:1000C8000130831603178800890101308316031352
:1000D8008500860188018701890183120313850140
:1000E800860187018801890108008B170B17831681
:1000F80003130C17831203130C131F083F394038DE
:100108009F00C3309F051F14831603139F139F126C
:040118001F120800AA
:04400E00D4E0FFFFFC
:00000001FF
