:020000040000FA
:060000000A128A110C280F
:10000800FE00030EF2000A08F3000A128A115328B0
:100018000A128A110F28F40183010A128A1114287E
:100028000A128A1184200A128A110A128A11A2203D
:100038000A128A110A128A11BB200A128A1183161F
:1000480003139F17831203131F149F149F182D283F
:100058002E282A28333074020318332834283728E6
:100068000810881008154A307402031C3C283D28E3
:10007800402808148810081133307402031C4528DE
:1000880046281E284A30740203184B284C281E287C
:100098000810881408111E280A128A110C288312C5
:1000A80003130C1F582859286328831603131E08A6
:1000B800F1007108F400831203130C137D288C1DC2
:1000C800662867287D280A128A11D0200A128A1108
:1000D800F1008312031309087106FE3971068900BD
:1000E80074080A128A11DA200A128A118312031379
:1000F8008C1173088A00720E8300FE0E7E0E0900B2
:1001080001308316031788008901213083160313F1
:10011800850086018801183087008901831203133E
:1001280085018601870188018901831603138C15CF
:100138000B178B17831203138C11080083160313F4
:100148009413141383120313941614161408F03915
:10015800043894008316031387120712871585162F
:100168008C150B178B17831203138C1108008B1730
:100178000B17831603130C17831203130C131F0892
:100188003F3940389F00C3309F051F14831603135F
:100198009F139F121F12080083160313141CD528DF
:1001A800D628D0288312031313080800F00070081B
:0801B8008312031393000800F9
:04400E00D4E0FFFFFC
:00000001FF
