:020000040000FA
:060000000A128A110C280F
:10000800FE00030EF4000A08F5000A128A1174288B
:100018000A128A110F28F001F101F20183010A1274
:100028008A11862883120313061C1B281C281F28E4
:10003800F101F10A8B1306182228232830287103AE
:10004800031D272828283028F1017208013EF300F3
:100058007308F2008B174728861C33283428372862
:10006800F001F00A8B1386183A283B2847287003BA
:10007800031D3F2840284728F0017208FF3EF3007F
:100088007308F2008B170800E8308B0040308316A5
:1000980003138C0003309600831603178801890127
:1000A8008316031385018312031385010330831616
:1000B8000313860083120313860183160313870133
:1000C8008312031387018316031388018312031312
:1000D8008801831603138901831203138901080019
:1000E8000B1C772878287F280B108B130A128A118B
:1000F80016200A128A1175088A00740E8300FE0EF3
:100108007E0E09000A128A1148200A128A11720802
:0E0118008312031388008B280A128A110C2808
:04400E00D4E0FFFFFC
:00000001FF
