:020000040000FA
:060000000A128A110C280F
:10000800FE00030EF4000A08F5000A128A117E2881
:100018000A128A110F28F001F101F20183010A1274
:100028008A11C128E8308B004030831603138C00F6
:10003800033096008316031788018901213083163F
:1000480003138500831203138501033083160313FA
:100058008600831203138601183083160313870062
:100068008312031387018316031388018312031372
:1000780088018316031389018312031389018316E8
:1000880003138C150B178B17831203138C1108009D
:1000980083120313061C512852285528F101F10A2E
:1000A8008B1306185828592866287103031D5D28E4
:1000B8005E286628F1017208013EF3007308F20019
:1000C8008B177D28861C69286A286D28F001F00A9C
:1000D8008B138618702871287D287003031D7528D6
:1000E80076287D28F0017208FF3EF3007308F200BD
:1000F8008B1708000B1C812882288A280B108B1369
:100108000A128A114C200A128A11A1288312031399
:100118008C1D8F289028A1280A128A11D3200A1230
:100128008A1183120313880072080A128A11DD20CB
:100138000A128A11831203138C1175088A00740E2F
:100148008300FE0E7E0E0900831603139413141306
:1001580083120313941614161408F0390438940003
:100168008316031387120712871585168C150B172C
:100178008B17831203138C1108000A128A11162098
:100188000A128A110A128A11A8200A128A11720800
:10019800831203138800CB280A128A110C288316AD
:1001A8000313141CD828D928D3288312031313083F
:0E01B8000800F300730883120313930008007D
:04400E00D4E0FFFFFC
:00000001FF
