:020000040000FA
:060000000A128A11F32F21
:100D6A000A128A11D3260A128A1183120313061849
:100D7A00BF2EC02EBA2EC22E0914061CC52EC62E90
:100D8A00C12E061CC92ECA2EBA2E0A128A11F7269D
:100D9A000A128A11BA2E0A128A1100288316031718
:100DAA0088018901831603138501831203138501C0
:100DBA0007308316031386008312031386018316F2
:100DCA000313870183120313870183160313880110
:100DDA0083120313880183160313890183120313F1
:100DEA008901080083120313091485010830FD00E4
:100DFA001B30FC002730FB00FB0B012FFC0B012FE3
:100E0A00FD0B012F83120313091089140730FD000B
:100E1A001730FC006A30FB00FB0B112FFC0B112F63
:100E2A00FD0B112F000083120313891009150630D8
:100E3A00FD001330FC00AD30FB00FB0B222FFC0B36
:100E4A00222FFD0B222F292F831203130911F001E0
:100E5A000A128A1190270A128A1108007308031DC0
:100E6A00372F382F392FF2017303031D3D2F3E2FE1
:100E7A00402FF201F20A02307306031D452F462F56
:100E8A004A2F0230F9007908F20003307306031D75
:100E9A004F2F502F542F0430F9007908F2000430F4
:100EAA007306031D592F5A2F5E2F0830F90079084F
:100EBA00F20005307306031D632F642F682F10306C
:100ECA00F9007908F20006307306031D6D2F6E2FA4
:100EDA00722F2030F9007908F20007307306031DDB
:100EEA00772F782F7C2F4030F9007908F2000830EC
:100EFA007306031D812F822F862F8030F90079080F
:100F0A00F20009307306031D8B2F8C2F8F2FF201ED
:100F1A00F101F10A0800E92F831203138618962FAC
:100F2A00972FBE2F992FF401861C9C2F9D2F982F47
:100F3A00861CA02FA12FBE2F7808013EFA007A083E
:100F4A00F8007808FA007A08F3000A128A1133279F
:100F5A000A128A1172088312031387007103031D90
:100F6A00B72FB82FBE2F0514F001F00AF801F701C8
:100F7A00F1010619C12FC22FE92FC42FF401061D52
:100F8A00C72FC82FC32F061DCB2FCC2FE92F7708C9
:100F9A00013EFA007A08F7007708FA007A08F300A7
:100FAA000A128A1133270A128A117208831203134A
:100FBA0088007103031DE22FE32F902F8514F0019F
:100FCA00F00AF701F801F10170080319ED2FEE2F6D
:100FDA00912F83120313880187010800F001F101A0
:100FEA00F201F301F401F501F601F701F8018301B9
:060FFA000A128A11B52E57
:04400E00D120FF3F7F
:00000001FF
