:020000040000FA
:060000000A128A11FA2F1A
:100F1A000A128A11A1270A128A11831203130618C8
:100F2A00972F982F922F0A128A11C5270A128A110F
:100F3A00922F0A128A110028831603178801890141
:100F4A008316031385018312031385010730831661
:100F5A000313860083120313860183160313870182
:100F6A008312031387018316031388018312031361
:100F7A008801831603138901831203138901080068
:100F8A008312031309140830F2001B30F1002730D2
:100F9A00F000F00BCE2FF10BCE2FF20BCE2F8312D7
:100FAA000313091089140830F2009D30F10005304E
:100FBA00F000F00BDE2FF10BDE2FF20BDE2FE52F08
:100FCA0083120313891009150730F2001730F10054
:100FDA006A30F000F00BEF2FF10BEF2FF20BEF2F2F
:100FEA0000008312031309110800F301F4018301BD
:060FFA000A128A118D2F7E
:04400E00D120FF3F7F
:00000001FF
