:020000040000FA
:060000000A128A11FB2F19
:100F020083160313890183120313890183160317BE
:100F120088018901073083160313860083120313A5
:100F220086018316031387018312031387010800C6
:100F32000A128A1181270A128A11063083120313B8
:100F42000606031DA52FA62FAB2F0A128A11C7274B
:100F52000A128A110630831203130606031DB22FEA
:100F6200B32FB82F0A128A11C7270A128A118312C5
:100F72000313061CBD2FBE2F9E2F0A128A11C727EC
:100F82000A128A119E2F0A128A1100288312031351
:100F920009140830F2001B30F1002730F000F00B8A
:100FA200D02FF10BD02FF20BD02F83120313091085
:100FB20089140330F2000830F1007730F000F00BB2
:100FC200E02FF10BE02FF20BE02F831203138910B5
:100FD20009150230F2000430F100BA30F000F00BD3
:100FE200F02FF10BF02FF20BF02F000083120313FE
:0E0FF20009110800F30183010A128A11992FD8
:04400E00D1E0FFFFFF
:00000001FF
