:020000040000FA
:060000000A128A110C280F
:10000800FE00030EF7000A08F8000A128A11732886
:100018000A128A110F2883133030FD000130FE00C8
:100028004030FF00203084000A128A1131210A1260
:100038008A11B401B501B601F001F101F201F30131
:10004800F40183010A128A1129280A128A11B6209A
:100058000A128A11083083120313B0000030B1006D
:100068000A128A1113210A128A11831203131F1408
:10007800273083120313B300F430B200B20B4228C6
:10008800B30B42280000831203139F149F184D28B6
:100098004E284A287108031D522853285B28051446
:1000A80085107308203E84008313000888007103BC
:1000B800031D5F2860286828051085147408203EF1
:1000C800840083130008880005157208031D6D2835
:1000D8006E282E2805112E280A128A110C280B1CAE
:1000E800762877287F280B108B130A128A11E520AF
:1000F8000A128A11AF28831203130C1F842885283B
:10010800A1281E08F5007508F2007208F5007508A8
:10011800F30072080F39F5007508F4007208F5004D
:1001280004300310F50CFF3E031D952875080F39A0
:10013800F6007608F3000C13AF280B1DA428A52899
:10014800AF280A128A1150210A128A110B11AD30F8
:1001580083120313810078088A00770E8300FE0E4D
:100168007E0E0900E8308B004030831603138C00A4
:1001780003309600C63081008316031788010130CA
:100188008900831603138501831203138501073041
:100198008316031386008312031386018316031341
:1001A80087018312031387018316031388018312BF
:1001B800031388018316031389018312031389012A
:1001C800080083120313061CEA28EB28EE28F00126
:1001D800F00A8B130618F128F228FD287003031D76
:1001E800F628F728FD28F0010708013E87008B173D
:1001F8001229861C002901290429B601B60A8B1385
:1002080086180729082912293603031D0C290D29E8
:100218001229B6010708FF3E87008B1708008B17C5
:100228000B17831603130C17831203130C13403098
:100238009F00831603139F01831203133008F900EC
:10024800F90DF90D1F087906C33979069F000C13BB
:1002580008007E088A007F0882000A128A112D2170
:100268000A128A118000840A04087D0603190034E2
:10027800FF0A0319FE0A31293F3406345B344F3430
:1002880066346D347D3407347F346F3477347C348E
:1002980039345E34793471347103031D5429552976
:1002A8005729F1015E297108031D5B295C295E2924
:0602B800F101F10A08004B
:04400E00D1E0FFFFFF
:00000001FF
