:020000040000FA
:060000000A128A110C280F
:10000800FE00030EF0000A08F1000A128A11A8285F
:100018000A128A110F28F60183010A128A11D028C0
:10002800F5004C28831603130F138F120F126E2836
:10003800831603130F138F120F166E2883160313DC
:100048000F138F160F126E28831603130F138F16B4
:100058000F166E28831603130F178F120F126E28B0
:10006800831603130F178F120F166E2883160313A8
:100078000F178F160F126E28831603130F178F167C
:100088000F166E28831603130F178F160F126E287C
:100098007508F300F4017408003A03195428462837
:1000A8007308003A03191628013A03191C28033A61
:1000B80003192228013A03192828073A03192E2878
:1000C800013A03193428033A03193A28013A031963
:1000D800402846280F14080007300A128A111420F5
:1000E8000A128A11831603138F110F118F108B17A1
:1000F8000B178B158B160B110B10161496148316F1
:1001080003178801013089008316031385018312C0
:100118000313850107308316031386008312031324
:10012800860183160313870183120313870183163D
:1001380003138801831203138801831603138901AB
:100148008312031389010800F201831203130618AE
:10015800AE28AF28B128F201F20A0B087206FE3960
:1001680072068B000B080139003A0319BC28BD2818
:10017800C9280618C028C128C928061CC428C528AB
:10018800C9280808FF3E88000B1071088A00700E05
:100198008300FE0E7E0E09000A128A1170200A12D0
:0A01A8008A11D5280A128A110C28CA
:04400E00D1E0FFFFFF
:00000001FF
