:020000040000FA
:060000000A128A110C280F
:10000800FE00030EF0000A08F1000A128A11A8285F
:100018000A128A110F28F50183010A128A11D528BC
:10002800F4004C28831603130F138F120F126E2837
:10003800831603130F138F120F166E2883160313DC
:100048000F138F160F126E28831603130F138F16B4
:100058000F166E28831603130F178F120F126E28B0
:10006800831603130F178F120F166E2883160313A8
:100078000F178F160F126E28831603130F178F167C
:100088000F166E28831603130F178F160F126E287C
:100098007408F200F3017308003A0319542846283B
:1000A8007208003A03191628013A03191C28033A62
:1000B80003192228013A03192828073A03192E2878
:1000C800013A03193428033A03193A28013A031963
:1000D800402846280F14080007300A128A111420F5
:1000E8000A128A11831603138F110F118F108B17A1
:1000F8000B178B158B160B110B10161496148316F1
:1001080003178801013089008316031385018312C0
:100118000313850107308316031386008312031324
:10012800860183160313870183120313870183163D
:1001380003138801831203138801831603138901AB
:1001480083120313890108000B1CAB28AC28B628BE
:10015800831203130618B128B228B6280708013EEF
:1001680087000B100B1CB928BA28C4288312031364
:100178008618BF28C028C4280708FF3E87000B1030
:10018800831203130C1FC928CA28CE280C130B107E
:100198001E08870071088A00700E8300FE0E7E0E0E
:1001A80009000A128A1170200A128A11DA280A1222
:0401B8008A110C2874
:04400E00D1E0FFFFFF
:00000001FF
