:020000040000FA
:060000000A128A110C280F
:10000800FE00030EF2000A08F3000A128A111A29E8
:100018000A128A110F2883133030FD000130FE00C8
:100028008C30FF00203084000A128A117D210A12C8
:100038008A11F601F701F801F90183010A128A1100
:10004800832883120313B0005F28831603130F134A
:100058008F120F128128831603130F138F120F1696
:100068008128831603130F138F160F128128831606
:1000780003130F138F160F168128831603130F17F8
:100088008F120F128128831603130F178F120F1662
:100098008128831603130F178F160F1281288316D2
:1000A80003130F178F160F168128831603130F17C4
:1000B8008F160F1281283008F400F5017508003AF0
:1000C8000319672859287408003A03192928013A9E
:1000D80003192F28033A03193528013A03193B2835
:1000E800073A03194128013A03194728033A031923
:1000F8004D28013A0319532859280F1408000A12E9
:100108008A11CF200A128A11E830F4000330F50072
:100118000A128A115F210A128A11831203131F140B
:10012800273083120313B200F430B100B10B9A28C0
:10013800B20B9A280000831203139F149F18A52856
:10014800A628A2287608031DAA28AB28B5280514D6
:1001580085107808203E8400831300088800F60183
:10016800F60A7603031DB928BA28C3280510851492
:100178007908203E8400831300088800F6010808E7
:100188007702031CC828C928CA280615061188281A
:100198000A128A110C2807300A128A1125200A121D
:1001A8008A11831603138F110F118F108B170B17DA
:1001B8008B158B160B160C170B110B1083120313D0
:1001C8000C138316031316149614161581170113AE
:1001D800811201128111F830810502308312031354
:1001E80081008316031788010130890083160313E1
:1001F80085018312031385010730831603138600D4
:1002080083120313860183160313870183120313D2
:100218008701831603138801831203138801831649
:100228000313890183120313890108000B1C1D297C
:100238001E2928298312031306182329242928296B
:100248000708013E87000B100B1C2B292C29362987
:100258008312031386183129322936290708FF3EED
:1002680087000B10831203130C1F3B293C295829C4
:100278001E08F0007008F7007708F0007008F80012
:1002880077080F39F0007008F9007708F00004309B
:100298000310F00CFF3E031D4C2970080F39F100C4
:1002A8007108F80088150C1373088A00720E830011
:1002B800FE0E7E0E09008B170B17831603130C17FF
:1002C800831203130C1340309F00831603139F01FE
:1002D800740883120313B000B00DB00D1F08300668
:1002E800C33930069F000C1308007E088A007F0877
:1002F80082000A128A1179210A128A118000840A5E
:1003080004087D0603190034FF0A0319FE0A7D2933
:100318003F3406345B344F3466346D347D340734EF
:100328007F346F3477347C3439345E3479347134C3
:04400E00D1E0FFFFFF
:00000001FF
